:020000040800F2
:10000000D02000201D0300080B3E000865380008C2
:10001000093E00081F1D00089D490008000000005F
:100020000000000000000000000000003D02000889
:10003000211D000800000000990200084944000842
:1000400037030008370300083703000837030008A8
:100050003703000837030008370300083703000898
:100060003703000837030008370300083703000888
:100070003703000837030008370300083703000878
:100080003703000837030008370300083703000868
:100090003703000837030008370300083703000858
:1000A00037030008F144000837030008370300084D
:1000B00037030008000000000000000037030008BC
:1000C00037030008000000000000000037030008AC
:1000D00000000000370300089149000800000000FC
:1000E000370300083703000800000000000000008C
:1000F0000000000000000000000000000000000000
:1001000000000000000000000000000037030008AD
:10011000000000000000000037030008370300085B
:1001200037030008370300083703000837030008C7
:10013000370300080000000000000000000000007D
:1001400037030008370300083703000837030008A7
:100150003703000837030008370300083703000897
:1001600037030008370300083703000800000000C9
:1001700037030008370300080000000000000000FB
:1001800037030008370300083703000800F002F8BF
:1001900000F044F80AA090E8000C82448344AAF1DD
:1001A0000107DA4501D100F039F8AFF2090EBAE8DB
:1001B0000F0013F0010F18BFFB1A43F0010318479B
:1001C0004469000064690000103A24BF78C878C10F
:1001D000FAD8520724BF30C830C144BF04680C604D
:1001E000704700000023002400250026103A28BF95
:1001F00078C1FBD8520728BF30C148BF0B60704799
:10020000752901F08F82782901F0C882002070479B
:100210001FB506F08FFB1FBD10B510BD01F045FDE9
:100220001146FFF7F5FF04F0D3FB01F063FD03B4C3
:10023000FFF7F2FF03BC01F06BFD00002C4B1968C7
:10024000086800F05AB880F30988BFF36F8F4FF049
:10025000000080F311887047000000000848006823
:10026000006880F308884FF0000080F3148862B6BD
:1002700061B6BFF34F8FBFF36F8F00DF00BF00BFCA
:1002800008ED00E0DFF80C00016841F47001016046
:10029000704700BF88ED00E0EFF30980BFF36F8F78
:1002A000134B1A681EF0100F08BF20ED108A20E9CA
:1002B000F04F106009B44FF0500080F31188BFF385
:1002C0004F8FBFF36F8F05F051FC4FF0000080F3AC
:1002D000118809BC1968086800F014B81EF0100FE6
:1002E00008BF00F014B880F30988BFF36F8F704720
:1002F00038000020EFF30580704730C8B0E8C04FE9
:10030000FFF7A1BF30C8B0E8C04FFFF7E7BFB0ECC0
:10031000088AB0EC08CAFFF7E6BF0000094880472A
:1003200009480047FEE7FEE7FEE7FEE7FEE7FEE7D7
:10033000FEE7FEE7FEE7FEE704480549054A064BEF
:1003400070470000E14400088D010008D01A002029
:10035000D0200020D01C0020D01C0020142141609F
:10036000704714207047406A704700005D03000822
:1003700063030008670300087D03000810B5044606
:1003800004F1100000F0ACFEC4F8F8000148C4F815
:100390007C0110BD6C030008F8B5E6B004460D46BC
:1003A00016461F460A4906A800F05AFB70996F9A34
:1003B00005910492009733466E996D9A03910292CB
:1003C0002A466C990191214600F060F867B0F0BDB3
:1003D00078030008F8B5E6B004460D4616461F46F9
:1003E000094906A800F03CFB6F996E9A04910392AC
:1003F00000976D996C9A0291019233462A462146E4
:1004000000F087F867B0F0BD7803000838B5002821
:100410001CBF01680029184A23D1184B1C684FF6ED
:10042000F0710C404CF24025AC421FBF1B681940D4
:100430004CF27024A14212D1114D296879B91149A9
:100440000B68C3F30B03B3F58A6F1FBF0968C1F3D1
:100450000B0140F28343994204BF0121117028B976
:1004600005E0094B994204BF012111704068BDE8C5
:10047000324004F0ABBA00BF681A002000ED00E083
:10048000002004E00010005C000037482DE9F04136
:1004900004460D46216816464A681F469047804626
:1004A000B8F5403F2ED122680A99936820469847B4
:1004B0008046B8F5403F25D12368089A0799D3F8BC
:1004C0000CC02046E0478046B8F5403F1AD123686B
:1004D000069A39461F692046B8478046B8F5403F1E
:1004E00010D1236829465D6932462046A8478046D8
:1004F000B8F5403F06D123680B9A09999D692046BB
:10050000A847804621680A68204690474046BDE8D3
:10051000F0812DE9F04104460D46216816464A68EF
:100520001F4690478046B8F5403F2ED122680A9971
:100530009368204698478046B8F5403F25D1236808
:10054000089A0799D3F80CC02046E0478046B8F5D2
:10055000403F1AD12368069A39461F692046B8479A
:100560008046B8F5403F10D1236829465D69324680
:100570002046A8478046B8F5403F06D12368099930
:10058000DD6900222046A847804621680A68204687
:1005900090474046BDE8F0814FF44030704700007E
:1005A000F0B50C4685B0114600281A461CBF0568F8
:1005B000002D0B4B11D082B104B971B90D9860B107
:1005C0000F9E0E9F0A9B0290049603970B980C9E19
:1005D000009001962046A8470346184605B0F0BD96
:1005E0000200030010B500F033FA4FF44034002845
:1005F0000EBF034C4FF4C07101F07DFA204610BDD0
:100600000200030010B5044600F022FA08B90548BC
:1006100010BD0021A160D0F87C21116888474FF4FB
:10062000403010BD0200030070B504460D4600F0D6
:100630000FFA064E40B1D0F87C0141688847A842C5
:1006400024BF65604FF44036304670BD02000300A1
:100650002DE9FF4715000C4600D02CB1064600F0EE
:10066000F7F95FEA000801D16448C3E0D8F8F80060
:1006700001684A689047B0F5003F17D1D8F87C115F
:100680008A68404690478146B9F1810F80F09E808C
:10069000A94508F1FC0A17D2D8F8F8000368D3F886
:1006A0000CC02A462146E047B0F5003F40F08E805E
:1006B000D8F8F8000368D3F810C06A465146E047FE
:1006C000B0F5003F76D10AE0002004E0215C0AF892
:1006D00000100098401C00900098A842F6D34FF0FC
:1006E000000C4749474A484B01AC0098844558D212
:1006F000D3E9007001ADC5E90070107800281ABF79
:10070000042086464FF0000E085854F80E50284436
:100710003E4D05600127D0F800E08760019D4F68DD
:100720001AF80C007D408EEA050585F0040E656818
:100730000F687D4085F0FC05754485F0A305684091
:100740000AF80C000CF1010CCFE7D3E9004501A831
:10075000C0E9004510782E4D002814BF4FF0040E5C
:100760004FF0000E01A8744651F80EE00459A6445B
:100770000127CEF80050DEF80040CEF808704D6832
:10078000019F40687D406C400D68684084F004041F
:1007900080F0FC00041984F057040AF80C400CF1B6
:1007A000010CCC45D1D3D8F8F80001684A689047CD
:1007B000B0F5003F0AD1D8F8F8000368D3F80C80F0
:1007C0004A465146C047B0F5003F01D0114811E0FC
:1007D000002006E05AF8201081F06A314AF8201013
:1007E000401CB0EB990FF5D3B06840F00100B06049
:1007F0004FF4403004B0BDE8F08700BF02000300B2
:10080000F06A0008681A0020280A0008ADBE4ED71A
:100810000DBE75A10100030038B50C46017A1546DE
:10082000CA0702D500F014F908B9084832BDD0F85B
:10083000F80003682146DC682A46A047B0F5003F6F
:1008400001D0034832BD4FF4403032BD02000300F6
:10085000010003002DE9F84191B005460E46174608
:10086000402101A801F047F9297AC80704D5284694
:1008700000F0EEF8040002D1DFF8A4804BE0D4F8D9
:10088000F800DFF8A0800368D3F810C06A4601A919
:10089000E047B0F5003F3ED1D4F8F80001684A685F
:1008A0009047B0F5003F36D1D4F87C118A682046D5
:1008B0009047D4F8F830024618461B68D3F80CC0AD
:1008C00004F1FC01E047B0F5003F24D1D4F87C01ED
:1008D00041688847D4F8F830024618461B68D3F8B8
:1008E0000CC001A9E047B0F5003F14D1D4F8F800DE
:1008F0000268696893689847B0F5003F0BD1D4F857
:10090000F80003681C693A463146A047B0F5003F3D
:1009100008BF4FF44038404612B0BDE8F08100BF38
:1009200002000300010003002DE9F841A5B00746CD
:1009300088461646402115A801F0DDF800220492F1
:10094000402105A801F0D7F8387AC1075ED53846AE
:1009500000F07EF8050059D0D5F8F8002D4C03685A
:10096000D3F810C06A4605A9E047B0F5003F3CD176
:10097000D5F8F80001684A689047B0F5003F34D1D7
:10098000D5F87C118A6828469047D5F8F830024699
:1009900018461B68D3F80CC005F1FC01E047B0F520
:1009A000003F22D1D5F87C0141688847D5F8F8305E
:1009B000024618461B68D3F80CC005A9E047B0F5FD
:1009C000003F12D1D5F8F80002687968936898471B
:1009D000B0F5003F09D1D5F8F80003681D6904AAF5
:1009E00015A9A847B0F5003F01D020460FE00A4BFB
:1009F0000A490B4A03960291019240461C68049BE7
:100A0000009415AA796800F057FD00E0054826B06B
:100A1000BDE8F08101000300F86A0008936E03004E
:100A200026C703000200030004B0010100170145BE
:100A3000E5050008050600082906000899050008D4
:100A4000510600081908000855080008290900087F
:100A50000168024A914218BF00207047300A00081E
:100A600010B5040008BF002404D0034820602046CD
:100A700009688847204610BD300A00082DE9F04F6C
:100A80000646D0B00868F56DD6F860E0726EB76EB5
:100A9000F36E00BA00906C46486800BA60600DF1D1
:100AA0004008886800BAA060C86800BAE0600869B9
:100AB00000BA2061486900BA6061886900BAA06123
:100AC000C86900BAE061086A00BA2062486A00BAE0
:100AD0006062886A00BAA062C86A00BAE062086B05
:100AE00000BA2063486B00BA6063886B00BAA063E9
:100AF000C86B00BAE063402058F80C1C58F820CCB2
:100B000058F838AC8CEA010158F840CC8AEA010167
:100B10008CEA01094FEAF979401E48F8049BEBD1B1
:100B200087EA020000EA0E00784010EBF5610098B9
:100B3000DFF824C441186144C81882EABE032B4080
:100B40004FEAF06153405918636859186144CF194E
:100B50004FEAB50383EABE01014081EABE0111EB11
:100B6000F765A1684D196544A91883EAB0023A40B7
:100B70004FEAF1655A405519E26855194FEAB70234
:100B800082EAB00765440F4005EBBE0E97EAB00756
:100B900017EBFE6527697D194FEAB10782EA070165
:100BA000654401EA0E01EB18514011EBF3656169F0
:100BB0004D194FEABE0187EA010E65440EEA030EA5
:100BC00015EBB0008EEA070E0EEBF065D4F818E0D6
:100BD00075446544AA1881EAB30505404FEAF26EF0
:100BE0004D40AE44E569AE44E64477444FEAB00078
:100BF00080EAB30E0EEA020E8EEAB30E0EEBF76534
:100C0000D4F820E075446544691880EAB2053D4097
:100C10004FEAF16E4540AE44656AAE44E6440EEBE1
:100C2000B3034FEAB70787EAB20E0EEA010E8EEA67
:100C3000B20E0EEBF365D4F828E07544654428182D
:100C400087EAB1051D404FEAF06E7D40AE44E56A8B
:100C5000AE44E6440EEBB2024FEAB30383EAB10EB0
:100C60000EEA000E8EEAB10E0EEBF265D4F830E01B
:100C700075446544EF1983EAB00515404FEAF76EF5
:100C80005D40AE44656BAE44E6440EEBB1014FEA05
:100C9000B20282EAB00E0EEA070E8EEAB00E0EEB3A
:100CA000F165D4F838E075446544EB1882EAB7057D
:100CB0000D404FEAF36E5540AE44E56BAE44E6445A
:100CC0000EEBB0004FEAB10181EAB70E0EEA030E57
:100CD0008EEAB70E0EEBF065D4F840E0754465443B
:100CE00081EAB30EAA180EEA000E4FEAF2658EEA08
:100CF000010E7544DDF844E04FEAB000754480EA27
:100D0000B30E65440EEA020E15EBB7078EEAB30E7A
:100D10000EEBF765DDF848E04FEAB202754480EA71
:100D2000020E65440EEA070E69188EEA000E0EEBFD
:100D3000F165DDF84CE07544654405EBB3034FEA1B
:100D4000B70E14270DF1500CDFF810528EEA010B8C
:100D500082EA0B0B0BEBF36A5CF804BBDA44AA449F
:100D6000504483EAB10B4FEAF06A8EEA0B0BDA4487
:100D70005CF804BBDA44AA44524480EAB30B4FEA5D
:100D8000F26A8BEAB10BDA445CF804BBDA444FEA4E
:100D9000B000AA4480EA020BD6448BEAB30B0BEBFB
:100DA000FE6A5CF804BBDA444FEAB202AA4482EA63
:100DB0000E0B0AEBB10180EA0B0B0BEBF16A5CF84E
:100DC00004BBDA447F1DAA44282F0AEBB3034FEA81
:100DD000BE0EBBD33C2F61D3502F4DD204EB870CFA
:100DE000C7F154075E4CA7FB04A504465D4FA80855
:100DF0008EEA010A82EA0A0A5CF804BB0AEBF36590
:100E00005D447D192C1983EAB10A4FEAF4658EEA34
:100E10000A0A55445CF804AB5CF804BB55447D19E0
:100E2000AA1884EAB30A4FEAF2658AEAB10A55447D
:100E30005D444FEAB4047D1984EA020AAE448AEAAA
:100E4000B30A0AEBFE655CF804AB55444FEAB20204
:100E50007D1982EA0E0A15EBB10184EA0A0A5CF8F0
:100E600004BB0AEBF1655D447D1915EBB303401E2D
:100E70004FEABE0EBCD12046F46D1B19F365336EEC
:100E8000C9183166716E71447166B36ED218B2665C
:100E9000F16E4018F06650B000F068B84EEA010BF1
:100EA0000EEA010A0BEA020B4BEA0A0A0AEBF365A7
:100EB00054F827A0DFF8B0C0554443EAB10B6544AD
:100EC00003EAB10A0BEA0E0B28184BEA0A0A7F1C48
:100ED0000AEBF06554F827A0554440EAB30B65448B
:100EE00000EAB30A0BEAB10BAA184BEA0A0A7F1C04
:100EF0000AEBF26554F827A055444FEAB00040EAE7
:100F0000020B654400EA020A0BEAB30BAE444BEA5B
:100F10000A0A7F1C0AEBFE6554F827A055444FEAE5
:100F2000B20242EA0E0B654402EA0E0A0BEA000B1B
:100F300015EBB1014BEA0A0A7F1C0AEBF16554F884
:100F400027A055447F1C65443C2F05EBB3034FEAB3
:100F5000BE0EA3D340E700BF9979825AA1EBD96EA8
:100F6000CDCCCCCCD6C162CADCBC1B8F30BCBDE8BA
:100F7000C08F000000B581B00168074A914200D1DE
:100F800010B9064801B000BD7C2100F0B4FD4FF45B
:100F9000003001B000BD00BF801000080300020057
:100FA0002DE9F0410B4A92E8F85188B0694681E892
:100FB000F8510268084B9A4200D118B9074808B0A6
:100FC000BDE8F0811422083000F003F908B0BDE854
:100FD000F08100BF601000088010000803000200CC
:100FE000152904D20268044B9A4200D108B903487B
:100FF0007047083000F0FCB88010000803000200C1
:1010000010B481B013460268074CA24200D118B94F
:1010100001B010BC0548704701B000F1240210BCBB
:10102000083000F0E9B800BF80100008030002009B
:1010300010B481B013460268074CA24200D118B91F
:1010400001B010BC054870470A4601B000F1240108
:1010500010BC083000F024B9801000080300020022
:101060000123456789ABCDEFFEDCBA987654321088
:10107000F0E1D2C30000000000000000000000000A
:10108000750F0008A10F0008E10F0008011000080B
:10109000311000087D0A000865110008B111000830
:1010A0006D110008F0B5A3B004460B4802900D4640
:1010B00016461F46094B0822402104A800F085F877
:1010C00028980190009733462A46214602A800F04E
:1010D0001BF823B0F0BD00BF80100008941000087A
:1010E00010B5040008BF002408D00548054B206057
:1010F0000822402104F1080000F067F8204610BDE6
:1011000080100008941000082DE9F04104460E46B6
:10111000216817464A681D4690478046B8F5003F4B
:1011200019D1226806999368204698478046B8F5F9
:10113000003F10D123683146DE683A462046B0476A
:101140008046B8F5003F06D12368079A29461D69F5
:101150002046A847804621680A68204690474046B6
:10116000BDE8F08120225C3000F056BCF0B5846808
:10117000A308002204F0030407E000F15C0555F821
:10118000226035BA41F82250521C9A42F5D300220F
:101190000BE000F15C0502EB830755F82360D500F6
:1011A000C5F11805EE40CE55521CA242F1D3F0BD58
:1011B00030B5C46803690022E31AD5188C5C054475
:1011C000521C082A2C77F8D330BD0360C16002613D
:1011D000704738B5044615460022626023685A6895
:1011E000904700206061A061A5604FF4003032BDDF
:1011F00081604FF4003070472DE9F84304462079B0
:10120000D4F80C80450748BF244845D466691D467C
:10121000A8F1010000EAD60306EBC506B6EBC50F40
:10122000666102D2A669761CA6611746A66906EB1E
:101230005576A6610E46E918884225D2A8EB030927
:101240004A463146F81800F0E7FB22681368394631
:101250000FE04246384600F0DFFB23681A68394643
:101260002046904707E0311811F00300F1D12268C1
:10127000136820469847484600EB0809A9F1010188
:10128000A942F0D3002300E000202A1A3118F818F0
:1012900000F0C2FB4FF40030BDE8F283040002000E
:1012A0002DE9FC4F024685B0D0681369DFF86CC1A8
:1012B000DFF86C81A0EB030A506840F00400506036
:1012C000002703A802900DF10C0ED8E9003403A802
:1012D000544DC0E900342878534D00280CBF00233A
:1012E000042399465CF803305EF809402344012644
:1012F0001D601C689E60DCF80430039DDCF80090E3
:10130000DEF804605D406540484C654089EA0606A9
:10131000474C66407519474C6540D8E9006B03ACF3
:101320000028C4E9006B0EBF002404200424029EA0
:101330005CF80000345920183F4C04600126046812
:1013400086600398029E43406340384C7068634057
:1013500089EA0000364C6040034438484340280086
:1013600018BF01205B1E9B41042F2CBFC0B2D80FB9
:1013700002F1140353F8200007F00303C3F1030341
:10138000DB00D8400DF807007F1C082F9DD31546C1
:101390000C466A69AB69E868D20842EA4372401EAB
:1013A00000EA0207002302409B420AD8524508D2B5
:1013B0008020E0557F1C574516D2AAEB0701E019A3
:1013C00010E08020E05500E0E355E8687F1C87428C
:1013D000FAD32A68136828469847BAF1000F03D059
:1013E0005146204600F065FB2A68069E059F9368DB
:1013F0006946284698472A68D2F800902146284630
:10140000C8472B68DA683946284690470EB1A86865
:1014100030604FF4003007B000F012B8F06A0008F6
:10142000FC6A0008681A00205FC51093048500124A
:10143000FC68017AC0F524FF24AF33D426AF698B52
:1014400030BCBDE8C08FF8B501240094002300240F
:101450000DE0009D065D0F5D7E40F643761CF60FA5
:1014600086F0010635400095641C009DEB189442FF
:10147000EFD31846F2BDF8B5002301240094002AEA
:1014800011E0009C85188F1815F8016C17F8015CA5
:101490006E40F643761CF60F86F001063440009449
:1014A000009CE318521EECD11846F2BD4714000808
:1014B00077140008010000002DE9F84F1D46DDF803
:1014C00028900B9F0D9C4FF0FF3300930E469246E1
:1014D000D9F800B0804632465146D847834664B3B7
:1014E000D9F8043032465146404698476FEA0B021D
:1014F000521C42EA0B0200996FEAD2735B1C19403E
:10150000C2430091521C024300996FEAD2735B1CE4
:101510001940009186F05531484087EA000181F07A
:101520005531216080F05531C943491C0843009A68
:101530006FEAD070401C82430092D9F8080001285D
:1015400009D17540E943491C0D4300986FEAD572F3
:10155000521C90430AE0F11C85EA9102D243521CCE
:10156000154300986FEAD5735B1C984386F0AA3642
:10157000009086EA0B0686F0AA33F243DB430C9810
:10158000C2F3C0725B1C42EAD3720099D243521C70
:1015900091430091774000998843009987F0AA37DA
:1015A0000F40384300F000B812BCBDE8E08F53EAAA
:1015B000020C00F069802DE9F04B4FF00006002B83
:1015C0001FBFB3FA83F503FA05F424FA05F65E406B
:1015D00012BF1643B2FA82F502FA05F4C5F12005EE
:1015E0001EBF22FA05FC44EA0C04203556EA044CDE
:1015F0004FEA144418BF641C4FF000084FF0000974
:10160000904271EB030C39D3002919BFB1FA81F76D
:1016100001FA07F6B0FA80F700FA07F6C7F12007DB
:101620001EBF20FA07FC46EA0C062037B6FBF4FC86
:10163000A7EB0507103F07F01F0BCBF120060CFAB4
:101640000BFB2CFA06F644BFB3460026202FA4BF9E
:101650005E464FF0000B5BEA060C08BF4FF0010B33
:1016600019EB0B09ABFB027C48EB0608C01B06FB21
:1016700002CC0BFB03CC71EB0C01C1E70B4602461D
:1016800041464846BDE8F08B13B54FF000004FF0DF
:101690000001AFF30080BDE81C4070470FB47CB57B
:1016A0000C0009AA009001D02044401E084B7B4446
:1016B00069460190089800F0A6FA05461CB1002082
:1016C000694600F0B3FA28467CBC5DF814FB0000C4
:1016D0008505000070B5044685690068C10601D51E
:1016E000302600E02026C00707D070BDD4E90121D4
:1016F00030469047206A401C20626D1EF6D570BDB2
:1017000070B5044685690078C00707D170BDD4E97B
:10171000012120209047206A401C20626D1EF6D5D2
:1017200070BD00002DE9F0410646002410687529BF
:10173000314616A510D0AFF30080002802DA4042EF
:1017400013A507E031688A0701D512A502E0490711
:1017500004D511A5012401E0AFF3008000210A2285
:1017600006F1240709E0B0FBF2FCB0FBF2F302FB48
:101770001C00303078541846491C0028F3D1234609
:101780002A463046BDE8F04100F0DFB90000000015
:101790002D0000002B0000002000000070B5044662
:1017A0000D4621461068AFF300802188090502D557
:1017B0000F4A7A4402E00E4A7A440E32002104F1C4
:1017C000240305E000F00F060009965D5E54491CF5
:1017D0000028F7D120780023000704D5702D02D00F
:1017E00009B1022311322046BDE8704000F0ADB9C6
:1017F000A25200002DE9F05F894604464FF0000A2E
:10180000DFF874B1FB44C0F820A02046E1688847A7
:10181000002874D0252806D0D4E901219047206AF9
:10182000401C2062F1E700265F462046E1688847B9
:101830002028054607DB312D05D2781910F8200C39
:1018400008B10643F1E7B00701D526F00406C4F855
:101850001CA00027C4F818A02A2D09D0284603F0A0
:10186000AEF838B304EB8708303DC8F8185019E0DB
:1018700059F8041B204604EB87029161E168884710
:10188000012F054618D1E069002820DA26F020064D
:101890001DE0D8F8180000EB800005EB4000303860
:1018A000C8F818002046E1688847054603F087F825
:1018B0000028EED1012F0AD02E2D08D12046E16854
:1018C00088477F1C0546022F46F02006C4DBA0692E
:1018D000002803DA404246F00106A061F00701D07B
:1018E00026F010066C2D0BD0682D09D04C2D39D068
:1018F0006A2D35D0742D35D07A2D33D016E038E0EE
:10190000E1682F4620468847B842054609D16C2F2A
:1019100026D04FF48060E16806432046884705469C
:1019200004E06C2F1AD04FF4807006430DB3A5F17C
:101930004100192802D8203546F400664A46294657
:10194000204626604E46FEF75BFC80B101280BD096
:10195000F61D26F0070000F1080956E74020E4E7ED
:101960008020D8E70020D6E706F104094DE7284695
:1019700052E7206A00F002B87852000030BCBDE89F
:10198000C09F40EA010370B59B072ED14FF001368E
:10199000042A2AD308C810C99D1B9D43121F15EAAB
:1019A000C61517D0D8B2E1B2401A50EA056110D17D
:1019B00098B2A1B2401A50EA05410AD123F07F4003
:1019C00024F07F41401A50EA052102D1180EA0EB05
:1019D000146070BDA342DBD018BA21BA884201D985
:1019E000012070BD4FF0FF3070BD0AB9002070BDFE
:1019F00010F8013B11F8014B63B1A3420AD1521E0A
:101A000008D010F8013B11F8014B1BB1A34201D1E2
:101A1000521EEDD1181B70BD032A40F2308010F029
:101A2000030C00F0158011F8013BBCF1020F624479
:101A300098BF11F801CB00F8013B38BF11F8013B0A
:101A4000A2F1040298BF00F801CB38BF00F8013BB7
:101A500011F0030300F0F780083AC0F0088051F855
:101A6000043B083A51F804CBA0E80810F5E7121D32
:101A70005CBF51F8043B40F8043BAFF30080D20751
:101A800024BF11F8013B11F801CB48BF11F8012B1D
:101A900024BF00F8013B00F801CB48BF00F8012B40
:101AA000704702F0FF0343EA032242EA024200F0D9
:101AB00002B84FF000020429C0F0128010F0030CAD
:101AC00000F01B80CCF1040CBCF1020F18BF00F831
:101AD000012BA8BF20F8022BA1EB0C0100F00DB8E0
:101AE0005FEAC17C24BF00F8012B00F8012B48BF3E
:101AF00000F8012B70474FF0000200B513469446E2
:101B00009646203922BFA0E80C50A0E80C50B1F155
:101B10002001BFF4F7AF090728BFA0E80C5048BF69
:101B20000CC05DF804EB890028BF40F8042B08BF07
:101B3000704748BF20F8022B11F0804F18BF00F803
:101B4000012B70477047704770472DE9F0470D46ED
:101B500099469246044600F124080168880604D597
:101B6000E06921F01001216000E00120A84201DDC0
:101B7000471B00E00027A1697A1902EB0900081A47
:101B8000A0612078C00602D42046FFF7A3FD0026FE
:101B900008E0D4E901211AF806009047206A401CA9
:101BA000761C20624E45F4DB2078C0060AD520461C
:101BB000FFF790FD06E0D4E9012130209047206A2C
:101BC000401C2062381EA7F10107F4DC07E0D4E9CD
:101BD000012118F805009047206A401C2062281E49
:101BE000A5F10105F3DC2046FFF78AFD2078000609
:101BF00002D50220BDE8F0870120FBE701694A1CFD
:101C000002610878704700B58FB0CDE9013100213D
:101C1000059105497944CDE9031011466846FFF75F
:101C2000E9FD0FB000BD0000E5FFFFFF0A6802F804
:101C3000010B0A607047D1E900239A4202D2531C7B
:101C40000B601070704710B5203AC0F00B80B1E8FF
:101C50001850203AA0E81850B1E81850A0E81850E1
:101C6000BFF4F5AF5FEA027C24BFB1E81850A0E8EA
:101C7000185044BF18C918C0BDE810405FEA827C04
:101C800024BF51F8043B40F8043B08BF7047D2071B
:101C900028BF31F8023B48BF11F8012B28BF20F8BC
:101CA000023B48BF00F8012B7047754600F02CF846
:101CB000AE4605006946534620F00700854618B039
:101CC00020B5FEF739FBBDE820404FF000064FF08D
:101CD00000074FF000084FF0000B21F00701AC4661
:101CE000ACE8C009ACE8C009ACE8C009ACE8C00980
:101CF0008D46704710B50446AFF300802046BDE81E
:101D00001040FEF794BA0000004870476C1A00209B
:101D100001491820ABBEFEE7260002007047FEE72F
:101D2000704772B6FEE710B590F825100022022920
:101D300005D00421C16380F82420012010BD016872
:101D40000B6823F00E030B6001680B6823F001039E
:101D50000B6090F84410046C01F01C03012101FA9F
:101D600003F3636080F8251080F82420104610BD2E
:101D700010B590F825100024022903D00421C16376
:101D800001241AE001680A6822F00E020A60016864
:101D90000A6822F001020A6090F84410036C01F016
:101DA0001C02012101FA02F25A6080F8251000217C
:101DB00080F82410816B01B18847204610BD0000D7
:101DC00070B5044600F01AF90546601C02D00448BC
:101DD0000078044400F012F9401BA042FAD370BD11
:101DE000280000202DE9F04FDFF8E09100230127C3
:101DF0000326A9F1040B85B00F2509F1040AABF104
:101E0000040EDBE007FA03FC12EA0C027ED00C7928
:101E100004F00304012C01D0022C20D1846800942A
:101E20005C0006FA04F80494009C24EA0804009478
:101E3000D1F80C80049C08FA04F8009C48EA0408D5
:101E4000C0F80880446824EA0C0491F804C0CCF37C
:101E5000001C0CFA03FC4CEA040CC0F804C00C791A
:101E6000E443A4070DD0D0F80CC04FEA430806FAAB
:101E700008F42CEA040C8C6804FA08F444EA0C0414
:101E8000C4600C7904F00304022C19D1DC0800EBC7
:101E900084040294246A4FEA437C4FEADC6CCDF858
:101EA00010C005FA0CFC24EA0C04D1F81080DDF80F
:101EB00010C008FA0CF848EA0408029CC4F8208014
:101EC00004684FEA430806FA08FC24EA0C0491F877
:101ED00004C00CF0030C0CFA08FC4CEA040CC0F82B
:101EE00000C04C6814F4403F67D0394CD4F860C04F
:101EF0004CF0010CC4F860C0246E23F0030C04F015
:101F000001040094334C6444029400E055E0A4685A
:101F10004FEA837C4FEA1C7805FA08FC24EA0C049B
:101F2000B0F1904F06D0DFF8B0C0604505D14FF05A
:101F3000010C0BE04FF0000C08E0DFF8A0C060459A
:101F400002D14FF0020C01E04FF0070C0CFA08FC34
:101F50004CEA040C029CC4F808C0D9F80040CC46F6
:101F6000D1F8048094435FEAC82800D51443CCF824
:101F70000040DAF80040D446D1F8048094435FEA88
:101F8000882800D51443CCF80040DBF80040DC463C
:101F9000D1F8048094435FEA883800D51443CCF824
:101FA0000040DEF80040F446D1F8048094435FEA34
:101FB000C83800D51443CCF800405B1C0C6822469E
:101FC000DC407FF41FAF05B000F00AB80804014000
:101FD00000100240000001400004004800080048D2
:101FE00030BCBDE8C08F0069084000D001207047B8
:101FF0000AB18161704781627047000001488068C2
:10200000704700002800002090F84120202A24D1A9
:1020100090F84020012A20D0012280F8402024227C
:1020200080F841200268136823F0010313600268FE
:10203000136823F480531360026813680B43136022
:1020400001680A6842F001020A60202180F841100C
:10205000002180F84010084670470220704790F831
:102060004120202A22D190F84020012A1ED00122AE
:1020700080F84020242280F841200268136823F071
:10208000010313600268136823F4706343EA0121BB
:10209000116001680A6842F001020A60202180F89C
:1020A0004110002180F84010084670470220704718
:1020B00070B5040004D094F84100002510B106E08A
:1020C000012070BD84F84050204600F079F92420AA
:1020D00084F841002068016821F001010160606816
:1020E000216820F0706008612068816821F4004157
:1020F0008160E0680128A06807D040F404402168AE
:102100008860E068022803D006E040F40040F6E76B
:1021100021684FF40060486020684168114A11430B
:1021200041602068C16821F40041C160D4E9040124
:102130000843A16940EA01202168C860D4E9070189
:102140000843216808602068016841F001010160CE
:102150006564202084F84100256384F84250002003
:1021600070BD0000008000022DE9F84F044690F891
:102170004100DDF828A01F4690468B4620287ED1DE
:1021800094F8400001287AD0012084F84000FFF73D
:1021900035FF0646012200901923D103204601F0A5
:1021A0001BFCE0BB222084F84100102084F8420090
:1021B00000256564C4F8248067856563618D3148B6
:1021C000FF274FF080784FF00079FF2903D927854A
:1021D0003A46009039E0618D218500903AE05946F9
:1021E000204601F0E1FB13E001F022FCB8B92068C1
:1021F000406A616A0870606A401C6062208D401EFF
:1022000080B22085618D491E6185618D01B168B103
:10221000608D3246002851462046E5D100E002E0BC
:1022200001F054FCD0B1012000F030B85346002238
:1022300080212046009601F0CFFB0028F3D1608D6D
:10224000FF2804D927853A4600954346C7E7608DA5
:102250002085009594F828204B46C0E7216820206F
:10226000C86121684A68084B1A404A6084F84100F6
:1022700084F8425084F840500020D5E7FFE7022060
:10228000D2E700000024008000E800FE18BCBDE892
:10229000E08F00002DE9F84F044690F84100DDF88A
:1022A00028A01F4690468B4620287ED194F84000F7
:1022B00001287AD0012084F84000FFF79FFE0646EF
:1022C000012200901923D103204601F085FBE0BBD9
:1022D000212084F84100102084F842000025656424
:1022E000C4F8248067856563618D3148FF274FF00E
:1022F00080784FF00079FF2903D927853A4600906E
:1023000039E0618D218500903AE05946204601F080
:102310004BFB13E001F000FCB8B9606A216800785B
:102320008862606A401C6062608D401E6085208DFE
:10233000401E80B22085618D01B168B1608D32464A
:10234000002851462046E5D100E002E001F0BEFB46
:10235000D0B1012000F030B8534600228021204641
:10236000009601F039FB0028F3D1608DFF2804D9D5
:1023700027853A4600954346C7E7608D208500953E
:1023800094F828204B46C0E721682020C8612168C6
:102390004A68084B1A404A6084F8410084F8425069
:1023A00084F840500020D5E7FFE70220D2E7000084
:1023B0000020008000E800FE18BCBDE8E08F0000AF
:1023C00030B59BB00446142115A8FFF794FB5421A7
:1023D0006846FFF790FB18492068884229D14020C1
:1023E000002500900B95684600F02EF908B1FFF724
:1023F00098FC124CE06C40F00100E064E06C15A920
:1024000000F001001A904FF4C06015901220CDE941
:10241000160503201890042019904FF09040FFF704
:10242000E1FCA06D40F40010A065A06D00F4001068
:102430001A901BB030BD0000005400400010024054
:1024400002488168027811448160704728000020AA
:1024500010B50024032000F099F80F2000F008F8D0
:1024600008B1012401E000F049F8204610BD000049
:1024700030B505461C4887B0016E41F40061016625
:10248000006E06A900F40060009001A800F0C4FAF4
:1024900000F0F4FA1549164AB0FBF1F11548491E4F
:1024A0000260416040F2E7320021C0E9032181600F
:1024B000816100F0FAFD040012D10E4800F028FE00
:1024C00004000DD1192000F033F8102D07D200229E
:1024D0002946192000F03AF80748056000E0012479
:1024E00007B0204630BD00000010024040420F00FF
:1024F000002C0140900100202C0000200B4882B0ED
:10250000016E41F001010166016E01F001010091CF
:10251000816D41F080518165806D002200F0805016
:1025200000900F21901E02B000F010B80010024081
:10253000002809DB00F01F020121914040098000C2
:1025400000F1E020C0F8001170470000F0B40E4B1D
:102550001B680C46C3F30223C3F10705042D00D901
:102560000425191D072901D2002300E0DB1E0126E6
:1025700006FA05F1491E214099409E40761E1640FC
:102580003143F0BC02F00BBA0CED00E0064900F05C
:10259000070208684FF6FF03184040EA0220034A8A
:1025A00010430860704700000CED00E00000FA05E1
:1025B0001649B0F5007F0868C0F3412009D0022811
:1025C00005D0086820F4C06040F4806008600020F6
:1025D00070470128FBD0086820F4C06040F4007008
:1025E00008600B483222006850430A4AB0FBF2F000
:1025F000401C00E0401E4A69520501D50028F9D16F
:1026000048694005E3D50320704700000070004092
:102610003400002040420F000248006800F4C0600F
:1026200070470000007000400248016841F480716A
:1026300001607047007000400248016841F00401E9
:1026400001607047001002402DE9F84F0446002752
:1026500000889C4D3E46000515D5E06B60B1B0F595
:10266000000F04D0B0F5400F2BD001270AE0E86836
:1026700040F48030E86024E00021201D01F0C6FB1A
:1026800007001ED03E462068800338D5A86D4FF065
:102690000008C00009D4A86D40F08050A865A86D5E
:1026A0004FF0010800F080500090DFF81CA2DAF82B
:1026B000001041F48071CAF80010FFF79FFC8146BA
:1026C00010E0D5F88800E16B20F440000843C5F81D
:1026D0008800D8E7FFF792FCA0EB0900022801D997
:1026E000032704E0DAF80000C005F3D5EFB33E4657
:1026F000B8F1000F03D0A86D20F08050A8652078B5
:10270000C00707D0D5F88800216A20F003000843ED
:10271000C5F888002078800707D5D5F88800616A59
:1027200020F00C000843C5F888002078800607D503
:10273000D5F88800A16A20F440600843C5F88800F5
:102740002088800507D5D5F88800616B20F44020EB
:102750000843C5F888002088400509D5D5F88800C9
:10276000A16B20F44010084300E02EE0C5F888007B
:102770002078400607D5D5F88800E16A20F440505B
:102780000843C5F888002088C00507D5D5F888001B
:10279000216B20F440300843C5F8880020884FF0B2
:1027A000006780044FF080684ED5D5F88800216C12
:1027B00020F040600843C5F88800206CB8423BD147
:1027C000E86840F48010E8603EE0D5F8900010F42E
:1027D000407014D0216D814211D0D5F89000D5F809
:1027E000901020F4407041F48031C5F89010D5F875
:1027F000901021F48031C5F89010C5F89000C00702
:1028000011D0FFF7FBFB074641F2883907E000BF14
:10281000FFF7F4FBC11B494501D9032668E7D5F84A
:1028200090008007F4D5D5F89000216D20F4407019
:102830000843C5F890005BE7404505D10121201D04
:1028400001F0E4FA00B106462068400317D5D5F838
:102850008800616C20F040600843C5F88800606C17
:10286000B84204D1E86840F48010E86007E04045D1
:1028700005D10121201D01F0C9FA00B106462088CA
:10288000400411D5D5F88800A16C20F040500843D1
:10289000C5F88800A06CB0F1805F05D10221201D31
:1028A00001F0B4FA00B106462088000406D555F8B8
:1028B000880FE16C20F0804008432860304600F02B
:1028C00005B80000001002400070004018BCBDE8D0
:1028D000E08F00002DE9F0470F4605006BD0494E10
:1028E000306800F00700B84209D2306820F00700D5
:1028F00038433060306800F00700B8425BD1287878
:10290000414C80070AD5A868A16801F0F00188420F
:1029100004D9A16821F0F0010143A1602878C00723
:102920002CD06868032811D0022812D0216898B1F1
:10293000490500293FDAA16821F003010143A160A4
:10294000FFF75CFB804641F2883910E0216889017D
:10295000EFE721688903ECE78907EAE7FFF74EFB19
:10296000A0EB0801494502D90320BDE8F087A06823
:10297000696800F00C00B0EB810FEFD12878800778
:102980000AD5A868A16801F0F001884204D2A168C4
:1029900021F0F0010143A160306800F00700B84267
:1029A0000BD9306820F0070038433060306800F001
:1029B0000700B84201D00120D7E72878400705D5A5
:1029C000A068E96820F4E0600843A0602878000768
:1029D00006D5A068296920F4605040EAC100A060D3
:1029E00000F05EF8A168094AC1F30311515C01F0DF
:1029F0001F01C8400649086006480068BDE8F04766
:102A0000FFF736BD0020024000100240106A0008A7
:102A1000340000202C0000200F2202600C4A936832
:102A200003F003034360936803F0F003836093684B
:102A300003F4E063C36092684FF4E06303EAD202F8
:102A400002610448006800F0070008607047000059
:102A500000100240002002400548064900688968CD
:102A6000054AC1F30221515C01F01F01C8407047C3
:102A70003400002000100240506A00080548064952
:102A800000688968054AC1F3C221515C01F01F0149
:102A9000C84070473400002000100240506A00080F
:102AA00070B52549002318468A68CC6812F00C02DC
:102AB00004F00306214C4FEA640509D00C2A05D026
:102AC000042A32D0082A00D1284670BD012E10D128
:102AD0000B681B0704D4D1F89430C3F3032302E03E
:102AE0000B68C3F30313164E56F82330DAB10C2AE1
:102AF000EBD1C86800F00300022818D0032818D0D2
:102B00001846CA68CB68C2F30212C3F306234343D4
:102B1000521CB3FBF2F2C868C0F34160401C400095
:102B2000B2FBF0F070BD184670BD204670BD204667
:102B3000E7E72846E5E70000001002400024F40023
:102B4000206A00082DE9F84304006FD0FA4DA86808
:102B500000F00C06E86800F003072078C00664D592
:102B600076B10C2E01D1012F0AD0A0690028286867
:102B70007AD040F001002860FFF740FA80465DE01F
:102B80002868800702D5A0690028DED0216A28685D
:102B9000000703D5286800F0F00004E0D5F89400A1
:102BA000F02202EA1010814216D9084601F0C4F959
:102BB00000283BD1286840F0080028602868216A76
:102BC00020F0F000084328606868E16920F47F4045
:102BD00040EA0120686016E0286840F0080028609C
:102BE0002868216A20F0F000084328606868E169DD
:102BF00020F47F4040EA0120686026B9206A01F095
:102C00009BF90028D5D1FFF74BFFA968CB4AC1F348
:102C10000311515C01F01F01C840C9490860C9484F
:102C20000068FFF725FC00287ED12EE0CAE000BF37
:102C3000FFF7E4F9A0EB0800022876D8286880079F
:102C4000F6D5286840F0080028602868216A20F03E
:102C5000F000084328606868E16920F47F4040EA9A
:102C60000120686011E0FFE720F001002860FFF715
:102C7000C5F9804606E000BFFFF7C0F9A0EB0800E9
:102C80000228DAD828688007F6D42078C00740D018
:102C9000082E18D00C2E01D1032F14D06068B0F587
:102CA000803F17D0B0F5A02F286817D020F48030CF
:102CB0002860286820F4802028606068E0B1FFF771
:102CC0009DF9804614E02868800322D560680028BA
:102CD00078D01EE0286840F48030EDE740F4802092
:102CE0002860F7E7FFF78AF9A0EB08006428A4D86A
:102CF00028688003F6D50CE0FFF780F9804605E0F0
:102D0000FFF77CF9A0EB0800642896D828688003B8
:102D1000F6D4207880073BD5042E11D00C2E01D19B
:102D2000022F0DD0E06801E0AAE1FFE0002828684A
:102D30001ED040F480702860FFF760F907460CE071
:102D4000286840050CD5E0680028C1D008E000BF25
:102D5000FFF754F9C01B022893D828684005F7D51F
:102D60006868217C20F0F85040EA016068600FE05C
:102D700020F480702860FFF741F9074605E000BFA6
:102D8000FFF73CF9C01B0228B1D828684005F7D4EA
:102D90002078000729D560690028D5F8940012D062
:102DA00040F00100C5F89400FFF728F9074604E059
:102DB000FFF724F9C01B022899D8D5F894008007A2
:102DC000F6D512E02BE120F00100C5F89400FFF7E2
:102DD00015F9074605E000BFFFF710F9C01B0228F0
:102DE00085D8D5F894008007F6D42078400766D5BA
:102DF000A86D0027C00008D4A86D40F08050A865D9
:102E0000A86D012700F0805000904F480168C90567
:102E100012D40168814641F480710160FFF7EEF839
:102E2000804605E0FFF7EAF8A0EB080002287DD80D
:102E3000D9F80000C005F5D5A068012816D00528EE
:102E4000D5F8900017D020F00100C5F89000D5F813
:102E5000900020F0040000BFC5F89000A06841F287
:102E60008839C0B1FFF7CAF880460FE0D5F8900066
:102E700040F00100F0E740F00400C5F89000F5E7ED
:102E8000FFF7BCF8A0EB080149454FD8D5F89000F2
:102E90008007F5D50EE0FFF7B1F8804606E000BFE9
:102EA000FFF7ACF8A0EB080149453FD8D5F89000F2
:102EB0008007F5D41FB1A86D20F08050A865207858
:102EC000800628D5606A0028D5F8980012D040F016
:102ED0000100C5F89800FFF791F8074605E000BF2C
:102EE000FFF78CF8C01B022820D8D5F8980080077F
:102EF000F6D510E020F00100C5F89800FFF77EF845
:102F0000074604E0FFF77AF8C01B02280ED8D5F870
:102F100098008007F6D4A06AF0B3022816D00C2ED1
:102F20007DD0286820F08070286000E0A7E0FFF7DF
:102F300065F80446A6E0000000100240106A000890
:102F4000340000202C00002000700040E868E26A95
:102F500000F00301914228D1216B00F070020901B9
:102F60001039914221D1626B00F4FE41B1EB022F86
:102F70001BD194F8382000F07841B1EBC26F14D126
:102F8000A18F00F4C00249084905A1F50011914242
:102F90000BD194F8401000E06AE04908490600F0BF
:102FA000C060A1F1007181424BD00C2E73D0286813
:102FB000400170D4286820F080702860FFF71EF868
:102FC000064604E0FFF71AF8801B022857D8286845
:102FD0008001F7D4F4E90B016FF00F0202EB01114D
:102FE0000843218A5204490802EB4151A26841EA90
:102FF00002210843217D4FF07E42490802EB4161E6
:103000000843217B40EAC160E968244A1140084333
:10301000E860286840F080702860E86800E03AE0E6
:1030200040F08070E860FEF7E9FF044605E000BF6D
:10303000FEF7E4FF001B022821D828688001F7D59D
:1030400027E02868800124D4286840F08070286038
:10305000E86840F08070E860FEF7D0FF044604E0C6
:10306000FEF7CCFF001B022809D828688001F7D59D
:103070000FE000BFFEF7C2FF001B022802D90320A9
:10308000BDE8F88328688001F4D4E8680449084062
:10309000E8600020F4E70120F2E700008C809D0149
:1030A000FCFFEEFE70477047704710B5040003D078
:1030B00094F83D0010B107E0012010BD002084F815
:1030C0003C00204600F022F8022084F83D00211D3B
:1030D000206801F013FA012084F8480084F83E00CB
:1030E00084F83F0084F8400084F8410084F84200EE
:1030F00084F8430084F8440084F8450084F84600CE
:1031000084F8470084F83D00002010BD704700009F
:1031100090F83D10012901D001207047022180F86C
:103120003D100168CA6842F00102CA6000680B499C
:10313000884205D0B0F1804F02D00949884207D1BA
:103140008168084A1140062906D0B1F5803F03D0B6
:10315000016841F00101016000207047002C01402E
:103160000040014007000100704770B50446006848
:1031700001694FF00005C943890715D4C168C943E7
:10318000890711D4E91E0161012020772068806938
:103190008007204602D0FFF7E7FF04E000F0A7F821
:1031A000204600F0A5F8257720680169C943490742
:1031B00017D4C168C943490713D46FF004010161F2
:1031C000022020772068806910F4407F204602D0DA
:1031D000FFF7CAFF04E000F08AF8204600F088F804
:1031E000257720680169C943090716D4C168C94316
:1031F000090712D46FF008010161042020772068CC
:10320000C0698007204602D0FFF7AEFF04E000F05F
:103210006EF8204600F06CF8257720680169C943F4
:10322000C90617D4C168C943C90613D46FF0100189
:103230000161082020772068C06910F4407F204693
:1032400002D0FFF791FF04E000F051F8204600F0B3
:103250004FF8257720680169C943C90708D1C168BB
:10326000C943C90704D1891E0161204600F042F814
:1032700020680169C943090609D4C168C943090620
:1032800005D46FF0800101612046FFF70CFF206834
:103290000169C943C90509D4C168C943090605D4F0
:1032A0006FF4807101612046FFF7FCFE2068016920
:1032B000C943490609D4C168C943490605D46FF01A
:1032C00040010161204600F01FF820680169C943F0
:1032D00089060BD4C168C943890607D46FF0200161
:1032E00001612046BDE87040FFF7DEBE70BD70474B
:1032F0007047000000680349884201D1FFF7A0B879
:1033000070470000002C01407047704770477047BD
:103310002DE9F04102680446D0691168936840F6CF
:103320000F0528424FF0000505D186067ED58E0692
:103330007CD5616E1BE1994F03F001060F403743C6
:1033400074D0C70709D0CF0507D501271762D4F875
:10335000802042F00102C4F8802082070AD5DA07F3
:1033600008D0276802223A62D4F8802042F0040292
:10337000C4F8802042070AD5DA0708D0236804225F
:103380001A62D4F8802042F00202C4F880200207BA
:103390000CD501F02002324308D0236808221A62BB
:1033A000D4F8802042F00802C4F8802002050BD532
:1033B0004A0109D523684FF400621A62D4F88020CC
:1033C00042F02002C4F88020D4F88020002A35D0B2
:1033D000800605D5880603D5616E09B12046884769
:1033E000D4F8800021688968490602D410F0280FBB
:1033F00026D0204601F054F92068806840061AD58E
:103400002068083050E8001F21F0400140E8001219
:10341000002AF5D1206F70B161498163206FFEF7FA
:10342000A7FC00280AD0206F816B01E00EE0204647
:10343000BDE8F04108472046FFF769FFBDE8F0818D
:103440002046FFF764FFC4F88050F7E7276E202678
:10345000012F7BD1C70679D5CF0677D51020106212
:1034600020688068400641D5216F086840680004E4
:10347000000CE3D0B4F858208242DFD9A4F85A00F7
:103480000868006880062AD4206850E8001F21F4EC
:10349000807140E80012002AF6D12068083050E818
:1034A000001F21F0010140E80012002AF5D1206838
:1034B000083050E8001F21F0400140E80012002AC7
:1034C000F5D1E6672566216851E8000F20F010006D
:1034D00041E80002002AF6D1206FFEF724FCB4F880
:1034E0005800B4F85A10401A81B22AE0B4F85800D3
:1034F000B4F85A10401A81B2B4F85A0000289DD08E
:1035000000299BD0226852E8000F20F4907042E816
:103510000003002BF6D12068083050E8002F22F07D
:10352000010240E80023002BF5D1E66725666566B9
:10353000226852E8000F20F0100042E80003002B40
:10354000F6D12046FFF7E1FE78E7FFE7C70209D58D
:103550005B0207D54FF4801010622046BDE8F041B1
:10356000FFF7D4BE020606D50A0604D5A16E0029CF
:103570007FF45DAF62E74006E6D54806E4D5204615
:10358000026852E8001F21F0400142E80013002BBE
:10359000F6D18667856600F064F94FE720010004E4
:1035A0008D46000810B5040002D0A06F10B107E0EE
:1035B000012010BD002084F87400204600F026F899
:1035C0002420A0672068016821F0010101602046E5
:1035D00001F08CF80128ECD0606A10B1204600F0B0
:1035E000C3FF2068416821F49041416020688168F0
:1035F00021F02A0181602068016841F00101016029
:103600002046BDE8104001F013B80000F0B59BB0B3
:103610000446142115A8FEF76EFA54216846FEF7F9
:103620006AFA2049206888423AD102240026684676
:1036300009960094FFF708F808B1FEF772FB1A48E4
:10364000816D41F400318165816D01F400311A9181
:10365000C16C41F00101C164C06C15A900F001000A
:103660001A90042081E8510003250720CDE9185065
:103670004FF090473846FEF7B5FBCDE917654FF49C
:1036800000401995CDE9150415A93846FEF7AAFBA7
:10369000002205212620FEF759FF2620FEF748FFCD
:1036A0001BB0F0BD00440040001002402DE9F84F6F
:1036B0000446C06F9A4616460D46202870D10DB3B9
:1036C00006B394F8740001286AD0012084F87400CD
:1036D0004FF00008C4F880802221E167C4F86080C0
:1036E0005834FEF78BFC24F8026B814624F85269AB
:1036F0004FF4805354F80809FF21984208D12269F9
:103700001AB11CE0012000F04DB840F2FF1116E0A4
:103710007F2290B1B0F1805F14D0A4F85C8000BF2C
:10372000B4F85C70984201D1206990B12E46002512
:1037300084F8748007F0FF0825E0266936B9A4F8FC
:103740005C10EDE7216909B13F21F8E7A4F85C209E
:10375000E6E70026ECE74B46002220212046CDF884
:1037600000A001F0B1F808B10320CCE72068808CFC
:103770008EB100EA080006F8010B00BFB4F85A0049
:10378000401EA4F85A00B4F85A000028E3D12020C3
:10379000E0670020B7E7384025F8020BEEE7FFE7C7
:1037A0000220B0E718BCBDE8E08F00002DE9F84327
:1037B0000446806F1F4616460D4620284FD1CDB1D6
:1037C000C6B194F87400012849D0012084F874002F
:1037D0004FF00008C4F880802120A067FEF70EFC9F
:1037E000A4F850608146A4F85260A068B0F5805FEC
:1037F00003D004E00120BDE8F883206928B12E46FB
:103800005FF0000584F8748010E00026FAE780215C
:10381000204601F059F8B8B9C6B116F8010B216875
:103820000885B4F85200401EA4F85200B4F85200C3
:103830004B464FF0000200970028E8D14FF04001BE
:10384000204601F041F830B10320D4E735F8020BEF
:10385000C0F30800E3E72020A0670020CBE70220A8
:10386000C9E77047FEE701688A69D243920701D42D
:1038700000228A6200688169C943C90703D081694F
:1038800041F00101816170472DE9F047044600686D
:103890008A461746816900252E46C906A9464FF07B
:1038A000200849D51021C16137E000BFBAF1FF3FC0
:1038B00033D0FEF7A3FBC11B514502D8BAF1000F6C
:1038C0002BD12068416894F8422001F4804183693B
:1038D000DB431B041CD4B1F5804F19D0202A17D02C
:1038E000416841F480414160FEF788FB07460FE0E4
:1038F000FEF784FBC01B19280AD9606C40F0200039
:10390000606484F8418084F8429084F840900125F6
:1039100020688069C0438006EAD420688069C0437B
:10392000800602D5002DC1D003E015B92168C1F889
:103930001C8046F00406012521688869C20505D56A
:103940004FF4807246F00106CA610125410509D590
:1039500022684FF4806146F00806D1610125800598
:1039600002D40AE0800507D521684FF4007046F0C4
:103970000206C861012500E08DB12046FFF773FF04
:1039800054F8240B4168074A11404160206A3043D3
:10399000206284F81D8084F81E9084F81C902846CC
:1039A000BDE8F08700E800FE10B5C1F3090141EA67
:1039B00002410268029C19432143506821F00041F2
:1039C0004FF4806303EA5453024C23439843084363
:1039D000506010BDFF63FF032DE9F0411D461746FF
:1039E0000E460446DDF8188008E0681C06D0FEF795
:1039F00005FBA0EB0800A8420BD855B120688069F0
:103A000036EA000012D00020B842EED00020BDE817
:103A1000F08154F8440F40F0200044F804092020BD
:103A200060700020A07020700120F0E70120EBE71B
:103A30002DE9F041202690460F460446002530E04F
:103A4000424639462046FFF71FFF10BB20688069B9
:103A5000C04380061ED420688169C943490701D448
:103A6000218D19BB8169C943C90604D41021C161E4
:103A70000420606400E065642068C66120684168D5
:103A8000114A1140416084F8416084F8425084F842
:103A9000405016E0FEF7B2FAA0EB0800B84208D892
:103AA0003FB120688069C0434007C9D40020BDE809
:103AB000F08154F8440F40F0200044F80409667087
:103AC00025700120F3E7000000E800FE70B51646FF
:103AD0000D4604460DE0324629462046FFF7D4FE47
:103AE00008B1012070BDFEF789FA801BA84207D8F3
:103AF00035B120688069C0438006ECD4002070BDD9
:103B000054F8440F40F0200044F80409202060706D
:103B10000020A0702070E4E770B516460D460446FC
:103B20000FE0324629462046FFF7AEFE08B10120DD
:103B300070BD681C05D0FEF761FA801BA84207D84B
:103B400035B120688069C0438007EAD4002070BD89
:103B500054F8440F40F0200044F80409202060701D
:103B60000020A0702070E2E718B500210B464FF44A
:103B7000486407E0009300BF009A521C0092A242E2
:103B8000F9D3491C8142F5D318BD08B500210B4675
:103B900007E0009300BF009A521C0092032AF9D359
:103BA000491C8142F5D308BD10B51D4C00220121EE
:103BB0002046FEF71DFA002202212046FEF718FAE1
:103BC0003220FFF7D1FF032000F05EF80520FFF759
:103BD000CBFF032000F058F80120FFF7C5FF0320BA
:103BE00000F052F80120FFF7BFFF022000F04CF870
:103BF0000120FFF7B9FF0021282000F01FF8002165
:103C00000C2000F01BF80021062000F017F800211E
:103C1000012000F013F8BDE810400220FFF7A4BF18
:103C20000004004810B5044603E00121641C00F0C4
:103C300005F820780028F8D110BD000010B5044622
:103C400009B1012200E0002201210948FEF7D0F964
:103C50000A20FFF79AFF200900F016F804F00F0081
:103C600000F012F8BDE810400220FFF77DBF000011
:103C70000004004800B140200844C0B240F0800079
:103C80000021FFF7DBBF000070B5044600F0010221
:103C90004FF0904508212846FEF7AAF9C4F34002E8
:103CA00010212846FEF7A4F9C4F3800220212846FB
:103CB000FEF79EF9C4F3C00240212846FEF798F9AA
:103CC0000A20FFF762FF0A4C012202212046FEF77C
:103CD0008FF94FF4FA752846FFF757FF00220221AB
:103CE0002046FEF785F92846BDE87040FFF74DBF36
:103CF00000040048F0B587B014216846FDF7FBFECC
:103D00002348C16C41F00401C164C16C01F004019D
:103D10000591C16C41F00101C164C16C01F0010168
:103D20000591C16C41F00201C164C06C002400F037
:103D3000020005904FF4807001258DE831004FF0AE
:103D4000904669463046FEF74DF8124F0022082192
:103D50003846FEF74DF908200090CDE90154694638
:103D600038460394FEF73EF878200090CDE90154E0
:103D7000694630460394FEF735F803200090CDE9FC
:103D80000154694638460394FEF72CF807B0F0BD9D
:103D900000100240000400480E4810B50C490160B4
:103DA0000D49416000210122C0E902120161416117
:103DB0008161C1610162FEF77BF900210548FEF7D0
:103DC00023F9BDE8104000210248FEF748B9000081
:103DD00000540040B8000020BB7C7000094808492E
:103DE00001604FF416514160002181600C22C160D6
:103DF000C0E904128161C16101624162FFF7D2BB77
:103E0000004400400C010020FEE7FEE72DE9F041F0
:103E1000444C05468846E0680026810728680DD096
:103E2000E16801F00301814216D1A8B1E068696838
:103E3000C0F30210401C88420ED120E0012804D0BB
:103E4000022805D0032807D108E02168890701E08E
:103E500021684905002907DB01265FE02168890305
:103E600002D421684903F5E7E1686A686FF00F033F
:103E700021F0730103EB021211430143E16020685A
:103E800020F080602060FEF7B9F8074605E000BF2B
:103E9000FEF7B4F8C01B022837D820680001F7D419
:103EA000B8F1000F18D0B8F1010F1DD0287D4FF0E8
:103EB0007E41400801EB4060A96840EA0120216989
:103EC000194A114008432061206840F0806020605A
:103ED000FEF794F807461AE0A868297B000240EA3A
:103EE000C1602169114AECE7288A1149400801EBB9
:103EF0004050A96840EA012021690E4AE1E700BF6D
:103F0000FEF77CF8C01B022801D9032606E02068D2
:103F10000001F5D52069A969084320613046BDE854
:103F2000F081000000100240FF80FFF9FF80FF07D2
:103F30000000E0FFFF809FFFF8B51C4D06460024FF
:103F4000A86DC00002D5FEF767FB0DE0A86D40F03C
:103F50008050A865A86D00F080500090FEF75CFBD3
:103F6000A96D21F08051A965B0F5007F04D0802EA5
:103F700007D94FF003040AE0802E08D9A02E01D8FB
:103F800004E001D1022402E0702E00D1012408488F
:103F9000016821F0070121430160006800F007007B
:103FA000A04201D00120F8BD0020F8BD0010024061
:103FB000002002401FB52F4D4FF0000902AE03AFA5
:103FC0000DF104080A244FF47A7A2BA0CDF808905A
:103FD0000068039029A00123006802AACDE90040EF
:103FE000D0212748FEF756F90123721CD12124481D
:103FF0000094FEF7B9F8012303AAD02120480094C9
:10400000FEF748F901237A1CD1211D480094FEF7E0
:10401000ABF8012301AAD02119480094FEF73AF920
:10402000012308F10102D12115480094FEF79CF804
:104030009DF8050000F03F008DF805002878022863
:1040400014D04FF0FF31286A00F0BCFD09499DF8FB
:104050000500491D4870891E9DF80D004870891E95
:104060009DF809004870286A00F009FE504600F0EB
:104070006DFDAAE700000020010000000200000022
:10408000B80000208CB0224C4FF000094FF0FF3AEE
:1040900004F1030B55465146206A00F093FD1C487D
:1040A0009BF80160401D90F80180001F4778206A4E
:1040B00000F0E5FD2946E06900F084FDA568E069AF
:1040C00000F0DDFD434613A2112102A8CDE90067EF
:1040D000FDF7E4FA2B4616A2112107A8FDF7DEFA38
:1040E0008DF8189000218DF82C900846FFF7C2FD3E
:1040F00002A8FFF797FD00210120FFF7BBFD07A8ED
:10410000FFF790FD4FF47A7000F020FDC2E7000049
:1041100000000020543A253032783A253032783A7F
:104120002530327820202020202020200000000090
:104130004F3A2530396C75202020202000000000E7
:10414000DFF8A0B08EB0ABF102094FF000080DF11E
:10415000300A06AD4FF0FF37A9F103043946206A53
:1041600000F030FD9BF801008DF82C0099F801005B
:104170008DF82D00206A00F082FD1422CDE9042A7A
:104180001021CDE90018CDE902851848164B02220E
:104190000BA90068FCF704FAB0F5403F1DD19DF86B
:1041A0002B0000F00F002918285CCA7800F07F006F
:1041B00042EA006648788978000440EA0120064314
:1041C0003946E06900F0FEFC0948B6FBF0F100FB5F
:1041D0001160A060E06900F052FD4FF47A7000F0C9
:1041E000B5FCBBE705000020006A0008EC6A000887
:1041F00040420F00A0B000206F4C03900490059047
:10420000814604F1050A04F1030B06904FF4807116
:104210004FF09040FDF7E7FE00283CD102202070CF
:1042200064230A2265A16848FFF7C0FA664801685E
:104230000A8B42F008020A830068018B41F01001EA
:104240000183322000F082FC4F46CDF80C90CDF86F
:104250001090CDF814904FF4FA530D2203A95A4848
:10426000CDF81890FFF722FA18B164230E2257A157
:1042700009E0052259A103A8FDF783FB002856D0C9
:1042800064230E2257A15048FFF790FA27704FF48D
:10429000967000F05BFC4FF0FF352946206A00F075
:1042A00091FC45489AF80180401C9BF801704678C3
:1042B000206A00F0E4FC2946E06900F083FCA56870
:1042C000E06900F0DCFC0097CDE90165434649A2B6
:1042D0003C2107A8FDF7E2F982B2642307A93A4816
:1042E000FFF764FACDE9007643464BA2112116A8E8
:1042F000FDF7D4F92B464EA211211BA8FDF7CEF9EC
:104300008DF8689000218DF87C900846FFF7B2FC8C
:1043100016A8FFF787FC00210120FFF7ABFC1BA8C4
:10432000FFF780FC4FF47A7000F010FC6EE79DF808
:1043300011009DF8141006019DF812003039303834
:1043400006439DF8130041EA00189DF815004FF050
:10435000FF3105019DF8160030380543206A00F052
:1043600031FC15488AF80160401C8BF801804570CB
:10437000206A00F084FC104A13480A250223521CCC
:10438000D02154380095FDF785FF0B4A0E480223D3
:10439000D21CD02154380095FDF77CFF064A0A480C
:1043A0000223521DD02154380095FDF773FF64237A
:1043B000092222A167E700000000002053594E4364
:1043C0005F5245510D0A00000C01002053594E4325
:1043D0002054494D454F55540D0A000053594E4342
:1043E0003A00000053594E4320494E56414C49442F
:1043F0000D0A000054696D653A20253032783A255F
:104400003032783A25303278207C204F54503A2090
:104410002530366C750D0A00543A253032783A252D
:104420003032783A25303278202020202020200099
:104430004F3A2530366C75202020200053594E43CA
:10444000204F4B0D0A00000010B54FF0E02000692E
:1044500002F07EF8012803D0BDE8104001F032BC24
:1044600010BD000010B596B044216846FDF743FB2F
:10447000142111A8FDF73FFB4FF40070FEF798F8E8
:10448000FEF7D2F8154850F8901F21F0180101608E
:104490001420009001200290002460210690CDE9B4
:1044A00007410221CDE90A100C9010200D90072041
:1044B000CDE90E0168461091FEF744FB0F201190E4
:1044C0000320CDE912041494012111A81594FEF7DC
:1044D00001FAFEF7B1F816B010BD0000001002405E
:1044E0000248016841F470010160704788ED00E006
:1044F0000148FEF73ABE00009001002070B5026846
:10450000164B4FF08046984201D0B04203D122F0C2
:1045100070044A682243124C124D984205D0B042B2
:1045200003D0A04201D0A84203D122F44076CA6849
:1045300032434E6922F08002324302608A68C262CE
:104540000A688262984203D0A04201D0A84201D1F9
:10455000096901630121416170BD0000002C014027
:10456000004001400044014090F82410C90706D0E3
:1045700001684A68836A22F400321A434A6090F85C
:104580002410890706D501684A68C36A22F480327C
:104590001A434A6090F82410490706D501684A6812
:1045A000036B22F480221A434A6090F82410090712
:1045B00006D501684A68436B22F400421A434A60F8
:1045C00090F82410C90606D501688A68836B22F426
:1045D00080521A438A6090F82410890606D5016833
:1045E0008A68C36B22F400521A438A6090F8241040
:1045F000490611D501684A68036C22F480121A43F7
:104600004A60016CB1F5801F06D101684A68436CAD
:1046100022F4C0021A434A6090F82410090606D515
:1046200001684A68806C22F4002202434A607047A5
:10463000F8B500260446C0F88060FDF7DFFC0546AB
:10464000206800686FF07E47000708D52B460022DF
:104650004FF400112046009700F036F960B9206849
:10466000006840070AD52B4600224FF480012046FF
:10467000009700F029F908B10320F8BD2020A067B9
:10468000E067266684F874600020F8BD10B5806A83
:104690000021A0F85A10A0F85210FEF738FE10BD05
:1046A000016851E8002F22F4907241E80023002BAA
:1046B000F6D10168083151E8002F22F0010241E8EB
:1046C0000023002BF5D1016E012908D1026852E8C0
:1046D000001F21F0100142E80013002BF6D1202129
:1046E000C167002101664166704700002DE9F04175
:1046F0000446016880682269E66910436269002502
:1047000032431043694B0A68694E324002430A60E3
:1047100020684168E26821F44051114341602168FA
:10472000A069994201D0226A10438A6822F430625B
:1047300002438A605F4927685F488F420DD1D0F8F5
:10474000880010F0030006D0012838D0022834D0A9
:10475000032821D135E001211FE058498F420BD1B8
:10476000D0F8880010F00C0025D0042827D00828A5
:1047700023D00C2810D124E09F420DD1D0F888001E
:1047800010F4406017D0B0F5806F18D0B0F5006F0E
:1047900013D0B0F5406F14D01021494A00264FF4D1
:1047A00000409F422FD171B102290FD004290FD0B0
:1047B000082973D10FE00021EFE70221EDE7042182
:1047C000EBE70821E9E7FEF747F903E0104602E0CE
:1047D000FEF766F9F0B3626802EB420181425DD8F0
:1047E000B0EB023F5AD8010E03025008181871416D
:1047F0000023FCF7DCFE334AA0F5407191424DD80E
:104800002168C8604BE0E3694FF6EF77834228D117
:10481000092943D2DFE801F005080B420D4242426C
:104820001000FEF719F906E0FEF728F903E010463C
:1048300002E0FEF735F968B14100606801EB500114
:10484000B1FBF0F0A0F11001B94227D84FF6F0719A
:10485000014000E023E0C0F3420001432068C16052
:104860001DE009291AD2DFE801F005080B190D191E
:1048700019191000FEF7F0F806E0FEF7FFF803E064
:10488000104602E0FEF70CF948B1616800EB5100F8
:10489000B0FBF1F0A0F11001B94205D9012566661F
:1048A0002846A666BDE8F08180B2A9E700800040F6
:1048B000F369FFEF0038014000100240004400405F
:1048C0000024F400FFFC0F002DE9F0479A4617463C
:1048D0000E4604464FF000094FF02008089D4AE0BC
:1048E000681C48D0FDF78AFBA0EB0A00A8422AD832
:1048F0004DB32068016849073DD5C069C043000534
:1049000039D421684FF400600862206850E8001F25
:1049100021F4D07140E80012002AF6D12068083056
:1049200050E8001F21F0010140E80012002AF5D1F3
:10493000C4F87880C4F87C80C4F8808084F87490CF
:104940000320BDE8F087216851E8000F20F4D07003
:1049500041E80002002AF6D12068083050E8001F24
:1049600021F0010140E80012002AF5D1C4F8788056
:10497000C4F87C80E2E72068C06936EA000004D011
:104980000020B842ACD00020DBE70120F9E70000AE
:104990000148FEF7BDBC00000C010020FEE709073E
:1049A000090E002804DB00F1E02080F800147047B5
:1049B00000F00F0000F1E02080F8141D704730383F
:1049C0000A2801D20120704700207047002070475C
:1049D0001CB5FDF73DFDFFF745FDFFF78BF9FFF730
:1049E000DBF9FFF7FBF900200A24CDE900400123A1
:1049F00001AAD0214348FDF74DFC0123424AD121B1
:104A000040480094FDF7B0FB01208DF804000346F8
:104A100001AAD0213B480094FDF73CFC3A4A01230F
:104A2000921CD12137480094FDF79EFB02208DF89F
:104A30000400012301AAD02132480094FDF72AFC8A
:104A4000314A0123121DD1212E480094FDF78CFB21
:104A50002E48816C41F480518164806C00F4805058
:104A600000900020FBF7D2FCFFF79EF800210846DB
:104A7000FFF700F926A0FFF7D5F800210120FFF786
:104A8000F9F828A0FFF7CEF84FF4FA60FDF798F98F
:104A900000210120FFF7D2F80220FFF765F800F0AF
:104AA00063F8254800F0B7F8174CA41EE0612248CF
:104AB000103000F0B0F8204A012120622032084670
:104AC00000F0FEF81C4A6062903A00211B4800F09A
:104AD00043F9194AE0606C3A0021194800F03CF9AA
:104AE000154A2061483A0021164800F035F9124A6B
:104AF0006061243A0021144800F02EF9A06100F012
:104B000045F8FEE7B8000020020000200010024037
:104B100020204F54502053797374656D202020203D
:104B20000000000020205374617274696E672E2E9D
:104B30002E20202000000000D0690008B53F0008AA
:104B400041410008F54100088540000810B5EFF329
:104B5000058111B16FF0050403E0002408B100F0F5
:104B600009FF204610BD0000EFF3058010B16FF083
:104B7000050070470448016811B14FF0FF307047DD
:104B800001210160002070478800002010B5EFF37C
:104B9000058010B16FF0050010BD084801680129BB
:104BA00002D04FF0FF3010BD054A002182F8141DDD
:104BB0000221016000F08EFF002010BD880000205F
:104BC0000BE000E02DE9F0410D46014621F0010027
:104BD00001F001014FF00004EFF305820AB1A41FB8
:104BE00016E048B100296FF001066FF00207294670
:104BF00008D001F0F1FB07E06FF0030408E035B1E5
:104C0000344605E001F02CFB0128F8D100E03C46D9
:104C10002046BDE8F08170B505464FF00004EFF383
:104C2000058050BB0DB1686800E00020C10701D0CD
:104C3000012600E0002600071FD46DB1D5E902105F
:104C400021B1502819D31EB1042002E020B114E094
:104C5000012001F095F805E00EB1042000E00120EC
:104C600001F083F8040008D00DB1296800E00021AC
:104C700000F01EFE0EB144F00104204670BD70B578
:104C8000014621F0010001F001014FF00004EFF3B3
:104C900005820AB1A41F11E028B16FF0020529B105
:104CA00001F023FA07E06FF0030407E000231A463F
:104CB000194601F00BF9012800D02C46204670BDA2
:104CC000F8B5144603460E464FF00005EFF3058095
:104CD00098BB93B39E423DD84CB1A0680028E068D1
:104CE00003D0502836D3012002E008B132E0002082
:104CF000012B05D010B31846A26801F016F820E089
:104D000040B103200090002211460120A36801F069
:104D100065F804E003220021012001F03EF80500BF
:104D200018D086B100231A46194601F0CFF80128A1
:104D300009D0284600F0D0FD00250BE0184600F011
:104D4000D7FF050006D00CB1216800E000212846FD
:104D500000F0AEFD2846F8BD2DE9FF414FEA010302
:104D60004FF00005EFF30581039549BB40B3802761
:104D7000182100244AB3166806B1344696691EB15C
:104D80003146761E382E02D21679F60703D000205F
:104D900004B0BDE8F081566906B1B708D2F808C082
:104DA000BCF1000F0DD0D5685C2D18D312693AB153
:104DB00036B18DE806103A46214601F097FB039084
:104DC0000DE0D6685EB912694AB903AACDE90012AE
:104DD000BAB2214601F05AFB012800D0039503988E
:104DE000D6E700002DE9F041134C0F460546E66872
:104DF0002068001D00F05EFC681C07D137B12168F7
:104E0000BDE8F0410D48091D00F0A4BC2068354400
:104E1000B5424560216805D2A06BBDE8F041091D8F
:104E200000F080BC606B091D00F07CFCA06A85422C
:104E300000D2A562BDE8F08138000020CC06002039
:104E40002DE9F041054600F091FC2D4CA068401C76
:104E5000A06020682B4F10B1606930B32BE0256053
:104E6000A068012827D1002606EB860007EB80000A
:104E700000F04AFC761C382EF6D3234800F044FCA0
:104E80002148143000F040FC1F48283000F03CFC62
:104E90001D483C3000F038FC1B48503000F034FC1A
:104EA000194860631430A06305E02068E96AC06AAD
:104EB000884200D82560606A401C60626864E86AC5
:104EC0002169884200D9206100EB800007EB800057
:104ED000291D00F03FFC00F069FC606900280CD03F
:104EE0002068E96AC06A884207D208494FF08050BA
:104EF0000860BFF34F8FBFF36F8FBDE8F0810000F4
:104F0000380000201C0200207C06002004ED00E098
:104F100038B500F02BFC104C2068C8B90F4800F0E1
:104F2000F3FB0E48143000F0EFFB0C48E060143047
:104F300020610A4B0020F03B009003F15002102149
:104F40000A2000F04BFF206010B105A100F0B0FC7A
:104F5000BDE8384000F02ABC74000020D0070020D3
:104F6000546D72510000000030B4026C0B46002AF0
:104F70000BD0C1681144C1608468A14201D30168AB
:104F8000C16030BC1846FCF747BD30BC70472DE906
:104F9000F041856B174604460026026C82B1C7B10A
:104FA000E068FCF739FDE168206C091AE1602268CD
:104FB000914202D2A168081AE060022F16D017E0D1
:104FC0002068A8B9A06801F03BFB06460020A0605D
:104FD0000EE06068FCF720FD216C606808446060AA
:104FE000A168884204D32068606001E005B16D1EAD
:104FF0006D1CA5633046BDE8F08110B5044690F8FD
:10500000590058B101280CD002280FD0502080F34D
:105010001188BFF34F8FBFF36F8FFEE7206B00F057
:10502000D9FB2046BDE8104000F0D4BB10BD000005
:105030000F4840F6B831420705D0C01D0C4A20F099
:105040000700821A891A0B4A00230144C2E90003AF
:105050000839183A21F0070111604B600B600B1AF8
:10506000C0E9001393604FF00040536050617047F7
:10507000B00E0020A4000020144E154CA6F29C4750
:105080004FF08058DFF84C9012E000BF00F06EFB4C
:10509000F068C568281D00F00DFBA068401EA060E8
:1050A0006068401E606000F081FB2846FFF7A5FFA6
:1050B00060680028EAD138680128F9D9C9F8008069
:1050C000BFF34F8FBFF36F8FF2E70000B8060020E9
:1050D0003800002004ED00E0002807D000218160A6
:1050E00001600B460A46C16000F0F0BE7047000048
:1050F00070B51D46049C51B1C4F80020C4E90F01ED
:105100000121204600F09EFE84F84C5070BD2460C2
:10511000F4E700002DE9F05F8846DDE90B941546C1
:10512000834691009A460A9EA522206BFCF7B9FCA3
:105130006FF00301206B01EB8501084420F00707A5
:10514000780707D0502080F31188BFF34F8FBFF34B
:105150006F8FFEE70025B8F1000F0FD05FF0000061
:10516000221818F8001082F8341018F8001011B145
:10517000401C1028F4D384F8435001E084F83450E4
:10518000382E00D33726E662C4E91365201D00F0EF
:10519000C6FA04F1180000F0C2FA2461C6F1380022
:1051A0006462A061656584F8585052465946384695
:1051B00000F06AFA2060B9F1000F01D0C9F8004090
:1051C00000F000B830BCBDE8C09F000030B5114908
:1051D00000E011460A688242FBD34B685C188442A7
:1051E00003D1406818444860084643681C1894423C
:1051F00009D1084C183C2468A24209D052681A44CC
:1052000042600A6812680260814200D0086030BDC6
:105210000460F9E7A400002070B5002441600B4D44
:105220000061914206D8D11A8269914206D2011DCD
:10523000286907E09A4203D2994201D3012403E08E
:10524000011DE86800F06EFA204670BD7400002071
:1052500010B5044600F08AFAA06B28B15FF0000494
:1052600000F0A4FA204610BD0124F9E730B589B05A
:105270003C4D6EE00498002806DADDE90601059A47
:1052800090470498002864DB069C606910B1201DDB
:1052900000F010FA03A800F0D7F8024604980A2894
:1052A00057D2DFE800F00505052D334A05052D33FB
:1052B00094F8280040F0010084F828000599A069BE
:1052C000059B01442046FFF7A7FF68B3216A2046EB
:1052D000884794F8280040073BD5002000900598A7
:1052E000A169002342181946204601F0EFFAD8B907
:1052F000502080F31188BFF34F8FBFF36F8FFEE70D
:1053000014F8280F20F00100207022E094F8280003
:1053100040F0010084F828000598A06128B18118A8
:1053200013462046FFF778FF13E0502080F31188E2
:10533000BFF34F8FBFF36F8FFEE794F8280081070C
:1053400003D4204600F046FA03E020F0010084F880
:105350002800002204A9286800F0E6FE002889D170
:1053600009B030BD740000202DE9FC410F46054610
:1053700000F0F4FB01A800F067F80446019818B1AA
:1053800001F012FABDE8FC81254EAFB1306900682A
:10539000D0B30027291B3A46306800F0C9FA01F063
:1053A00003FA0028EED11F494FF080500860BFF388
:1053B0004F8FBFF36F8FE5E7A542EBD801F0F4F90B
:1053C000F0682746C068C468201D00F073F994F89F
:1053D0002800410719D5A0692B4641193A462046B5
:1053E000FFF71AFFA8B100200346014600902A46A5
:1053F000204601F06BFA60B9502080F31188BFF3AA
:105400004F8FBFF36F8FFEE707E020F0010084F8B5
:105410002800216A20468847B4E70127BAE7000040
:105420007400002004ED00E00648416B096829B1D2
:10543000416BC968C9684968816270474FF0FF31A4
:10544000FAE700003800002070B5054601F08EF83C
:10545000064E0446B068844203D200F009F80120E9
:1054600000E0002028602046B46070BD7400002079
:10547000F8B5194D20E0C068C4680668201D00F02A
:1054800019F9216A2046884794F82800400713D567
:10549000A0693044B04206D924616060211DE868EB
:1054A00000F040F908E00020034601460090324633
:1054B000204601F00BFA38B1E86801680029DAD11A
:1054C0002969C5E90310F8BD502080F31188BFF3A6
:1054D0004F8FBFF36F8FFEE77400002008484068CD
:1054E000401C4FF0500080F3118804D0BFF34F8F61
:1054F000BFF36F8FFEE7BFF34F8FBFF36F8FFEE7F2
:10550000AC000020074CE068016841B1C068002190
:10551000D0F80000FFF728FFFFF7A8FEF3E701210E
:105520000020F7E7740000202DE9F041044600F068
:105530001DF994F9455004F1240609E0606A48B168
:10554000304601F0F9F808B100F042FA6D1E6DB274
:10555000002DF3DC4FF0FF3684F8456000F026F9AB
:1055600000F004F994F9445004F1100709E02069AF
:1055700048B1384601F0E0F808B100F029FA6D1E94
:105580006DB2002DF3DC84F84460BDE8F04100F01A
:105590000DB900002DE9F0410546002700F0DEFAC4
:1055A000324E306808B9FFF743FD706905424ED1AD
:1055B000C5B3083568070ED005F00700C0F1080034
:1055C0000544680707D0502080F31188BFF34F8F40
:1055D000BFF36F8FFEE72DB37068854237D823483D
:1055E000183001460C6801E020460C466168A9426B
:1055F00002D221680029F7D131688C4227D0076890
:105600002168016060680837411B10290FD96019B3
:10561000420708D0502080F31188BFF34F8FBFF3AB
:105620006F8FFEE713E041606560FFF7CFFD6168B3
:105630007068401A7060B268904200D2B0607069C1
:1056400001430020C4E90001F068401CF06001F053
:10565000ABF8780707D0502080F31188BFF34F8F45
:10566000BFF36F8FFEE73846BDE8F0818C00002065
:105670000449086818B10868026D521C0265086880
:10568000704700003800002010B5031F4FF08074F1
:105690001C601B1F21F001011960191F044B0B60D6
:1056A00014390A60091F6FF0020244380A6010BD05
:1056B000DD540008D0E9013201699A60D0E9012384
:1056C0005A604A68824201D182684A6000220261BF
:1056D0000868401E0860086870470000034B0360BC
:1056E00003F15C000860802010607047F80700201C
:1056F000044B036003F15C0008604FF4807010609D
:1057000070470000540A002000F108014FF0FF32FA
:10571000C0E90112C16001610021016070470021F0
:105720000161704730B50B685A1C02D000F10802C5
:1057300002E0026904E02246546825689D42FAD9D5
:1057400053684B6099608A60516008610168491C28
:10575000016030BD42684A6093688B60936859600D
:10576000916008610168491C01607047502080F316
:105770001188BFF34F8FBFF36F8F0A494868401CF1
:10578000486001280CD10848006810F0FF0F07D0CE
:10579000502080F31188BFF34F8FBFF36F8FFEE768
:1057A00070470000AC00002004ED00E008494868A4
:1057B00028B1401E486001D180F311887047502005
:1057C00080F31188BFF34F8FBFF36F8FFEE70000A8
:1057D000AC00002070B500282AD0164DA0F10804B6
:1057E00060686969084207D1502080F31188BFF3CF
:1057F0004F8FBFF36F8FFEE722683AB1502080F3DE
:105800001188BFF34F8FBFF36F8FFEE7884360604F
:1058100000F0A4F960686968084468602046FFF7F2
:10582000D5FC2869401C2861BDE8704000F0BCBF71
:1058300070BD00008C0000204FF0E02000210161CD
:10584000816105494FF47A720968B1FBF2F1491E92
:1058500041610721016170473400002010B5FAF75B
:1058600049FD114910280ED300F1E02090F8F00313
:105870000A78904207D2502080F31188BFF34F8FEF
:10588000BFF36F8FFEE709480068896800F4E060A5
:10589000884207D9502080F31188BFF34F8FBFF3A0
:1058A0006F8FFEE710BD0000AC0000200CED00E0A3
:1058B00010B5084B002200BF53F832401CB1521CF7
:1058C000082AF9D310BD43F8321003EBC201486037
:1058D00010BD0000DC01002010B504000AD000F06B
:1058E00013F894F8460000280CD12046BDE810407B
:1058F000FFF770BF502080F31188BFF34F8FBFF3C5
:105900006F8FFEE710BD0000084A002102EBC103C3
:105910005B68834206D1002042F8310002EBC101EE
:1059200048607047491C0829F0D37047DC0100200B
:1059300070B515460E460446FFF718FF94F944105B
:105940000020491C01D184F8440094F94510491CF9
:1059500001D184F84500FFF729FFA06B28B92A463A
:10596000314604F1240000F051F82046BDE87040B3
:10597000FFF7DABD10B5020014D00F48006B38B144
:10598000502080F31188BFF34F8FBFF36F8FFEE776
:1059900000F0E4F800211046FFF724FA00F004FFBD
:1059A000002807D105494FF080500860BFF34F8FA2
:1059B000BFF36F8F10BD00003800002004ED00E041
:1059C00002490A6A0260C9684160704738000020D5
:1059D00001490120C86170473800002010B50C460D
:1059E00050B1094909681831FFF79CFE2046BDE80F
:1059F00010400121FFF7F6B9502080F31188BFF362
:105A00004F8FBFF36F8FFEE73800002070B514464C
:105A10000D4668B10A4909681831FFF79BFE0CB1C1
:105A20004FF0FF3521462846BDE87040FFF7DAB950
:105A3000502080F31188BFF34F8FBFF36F8FFEE7C5
:105A40003800002070B504003ED0226DA2B1E06C99
:105A5000884200D30146E06A884235D0012A33D11A
:105A60001A4D2A6894420FD1502080F31188BFF359
:105A70004F8FBFF36F8FFEE7502080F31188BFF385
:105A80004F8FBFF36F8FFEE7E162A269002A02DB4E
:105A9000C1F13801A1610E4E00EB8000616906EB97
:105AA0008000814210D1201DFFF704FEE06A2969C1
:105AB000884200D9286100EB800006EB8000211DA0
:105AC000BDE87040FFF746BE70BD00003800002002
:105AD0001C02002030B587B00024039405AA04A955
